:100000000C942A000C9447000C9447000C94470071
:100010000C9449000C9447000C9447000C94470042
:100020000C9448010C9447000C9447000C94470032
:100030000C9447000C9447000C9447000C94470024
:100040000C9447000C9447000C9447000C94470014
:100050000C94470011241FBECFE5D4E0DEBFCDBF16
:1000600011E0A0E6B0E0E6EFF6E202C005900D92E6
:10007000A032B107D9F713E0A0E2B1E001C01D92B0
:10008000AF30B107E1F70E9494000C9479130C94FF
:1000900000001F920F920FB60F9211248F939F931F
:1000A000EF93FF93809150019091510180FF1BC00D
:1000B00012BA8091600085BBE0916000F0E0EE0F25
:1000C000FF1FEF5DFE4F80818BBB80916000873109
:1000D00020F088E08093600013C0809160008F5F03
:1000E000809360000DC015BA8091600082BBE091E2
:1000F0006000F0E0EE0FFF1FE05EFE4F80818BBBE3
:1001000080915001909151010196909351018093FB
:10011000500185E984BDFF91EF919F918F910F90E0
:100120000FBE0F901F9018952F923F924F925F92A3
:100130006F927F928F929F92AF92BF92CF92DF92F7
:10014000EF92FF920F931F93CF93DF938FEF8ABBB2
:1001500017BA84BB8FE181BB83E085BD84E08EBD8F
:1001600085E984BD83EF8DBD8AEE8CBD84E489BFB3
:1001700078940F2EFDE46F2E7724F02D0F2EFCE4E3
:100180004F2E5524F02D0F2EF9E5CF2EDD24F02D26
:100190000F2EF0E12F2EF7E23F2EF02DC0E9D1E037
:1001A00005E00E94EA07809152018330C9F1843052
:1001B00009F46BC08230A9F70E94C504F301808165
:1001C000F2019081B82EAA249501290F311DC90191
:1001D0000E940A0C7C01F60180818B7F8083910153
:1001E000CE010197F1F721503040D1F7F60180811F
:1001F000846080830E949007C7010E948405C70124
:1002000062E00E94170E182F882359F20E9492066E
:1002100000935201C701612F42E00E94B00FC1CF8D
:100220000E94C504F3018081F2019081982E8824F8
:100230009401290F311DC9010E940F097C01F601AB
:1002400080818B7F80839101CE010197F1F721504E
:100250003040D1F7F6018081846080830E9490074E
:10026000C7010E948405C70163E00E94170E182F82
:10027000882309F496CF0E94920600935201C70189
:10028000612F43E00E94B00F8CCF0E94410E89CFB6
:100290001F920F920FB60F9211242F933F934F93FB
:1002A0005F936F937F938F939F93AF93BF93EF93DE
:1002B000FF93B09917C080915301882321F080915A
:1002C0005301843048F081E08093530180915201C2
:1002D00090E00E94220208C0E3E5F1E080818F5F98
:1002E000808302C010925301B19917C080915401CC
:1002F000882321F080915401843048F081E080937C
:1003000054018091520190E00E948D0208C0E4E502
:10031000F1E080818F5F808302C010925401B29916
:1003200017C080915501882321F0809155018430B8
:1003300048F081E0809355018091520190E00E9445
:100340000F0308C0E5E5F1E080818F5F808302C084
:1003500010925501B39917C080915601882321F05E
:1003600080915601843048F081E08093560180915D
:10037000520190E00E947C0308C0E6E5F1E0808134
:100380008F5F808302C010925601859917C08091BB
:100390005701882321F080915701843048F081E093
:1003A000809357018091520190E00E94FF0308C0A2
:1003B000E7E5F1E080818F5F808302C010925701F2
:1003C000869917C080915801882321F080915801A7
:1003D000843048F081E0809358018091520190E090
:1003E0000E943E0408C0E8E5F1E080818F5F8083D1
:1003F00002C01092580180915D0190915E010196BA
:1004000090935E0180935D0180915B0190915C010E
:10041000019690935C0180935B0183EF8DBD8AEE22
:100420008CBDFF91EF91BF91AF919F918F917F9183
:100430006F915F914F913F912F910F900FBE0F9051
:100440001F90189582309105A1F0833091051CF41E
:10045000892B31F008950497029708F05DC04DC0D4
:1004600080916001882309F457C081508093600116
:10047000089540916001242F30E08091080390E0BE
:100480000896821793070CF047C050915A01652FC8
:100490006095A0E2B1E0C901880F991FFD01E80F46
:1004A000F91F3196808186238083842F8150809329
:1004B0006001282F30E0C901880F991FA80FB91FCC
:1004C00011968C91852B8C9380915F01882321F16B
:1004D000C9010196E0E2F1E0880F991FDF01A80F42
:1004E000B91F8C9186238C93C901880F991FE80F3F
:1004F000F91F8081852B8083089520910903822F25
:1005000063E00E941D12992339F0822F815080935D
:10051000090381E080930E03089583309105C1F1B2
:100520008430910524F4029709F078C008C0843023
:10053000910509F451C0059709F070C058C0209189
:100540005A01223008F46AC080916001482F50E0BF
:10055000922F9095FA01EE0FFF1FEF5DFE4F808105
:100560009823269520935A01922B908380915F01C6
:10057000882309F453C0FA01EE0FFF1FE05EFE4F1F
:10058000822F880F809590818923822B8083089504
:1005900080915A01823008F441C0482F469540931B
:1005A0005A0180916001282F30E0F901EE0FFF1F02
:1005B000EF5DFE4F408380915F01882379F1F9015F
:1005C000EE0FFF1FE05EFE4F842F880F8095908115
:1005D0008923842B80830895809109038330F0F070
:1005E00083508093090381E080930E0308958091E6
:1005F000090390E0FC01E55FFC4F2081293128F0E0
:10060000FC01E55FFC4F108206C0FC01E55FFC4F7A
:10061000822F8F5F808381E080930E030895823064
:100620009105A1F0833091051CF4892B31F00895D8
:100630000497029708F05FC04FC08091600182303C
:1006400008F059C08F5F8093600108953091600178
:10065000432F50E02091080387E190E0821B91092D
:10066000481759070CF047C060915A01762F7095D2
:10067000A0E2B1E0CA01880F991FFD01E80FF91F40
:100680003196808187238083832F8F5F80936001E1
:10069000282F30E0C901880F991FA80FB91F1196A4
:1006A0008C91862B8C9380915F01882321F1C90165
:1006B0000197E0E2F1E0880F991FDF01A80FB91F51
:1006C0008C9187238C93C901880F991FE80FF91F1C
:1006D0008081862B8083089520910903822F63E017
:1006E0000E941D12923038F4822F8F5F809309038D
:1006F00081E080930E03089583309105C1F1843029
:10070000910524F4029709F079C008C0843091055E
:1007100009F451C0059709F071C058C020915A01E1
:10072000922F22230CF46AC080916001482F50E080
:100730009095FA01EE0FFF1FEF5DFE4F8081982329
:10074000220F20935A01922B908380915F0188237E
:1007500009F454C0FA01EE0FFF1FE05EFE4F822F36
:100760008695809590818923822B8083089580913E
:100770005A0188230CF442C0482F440F40935A0179
:1007800080916001282F30E0F901EE0FFF1FEF5D2F
:10079000FE4F408380915F01882381F1F901EE0FC4
:1007A000FF1FE05EFE4F842F869580959081892300
:1007B000842B80830895809109038330F8F48D5F42
:1007C0008093090381E080930E03089580910903CB
:1007D00090E0FC01E55FFC4F2081222331F4FC0115
:1007E000E55FFC4F89E1808306C0FC01E55FFC4FBB
:1007F000822F8150808381E080930E03089583309F
:100800009105F1F0843091052CF4009731F00297B6
:10081000A1F509C006978CF52BC0809160018E5F11
:1008200080935201089580915F01882331F18AE617
:100830009FEF90935E0180935D0110925F01089598
:1008400020916101309162013323BCF081E08093FB
:100850006301C901019690936201809361010A9737
:1008600064F088EF9FEF9093620180936101089597
:100870001092590181E080930E0308958330910511
:1008800059F18430910591F10297C1F580915F0192
:100890008823A1F120910803222381F12150209384
:1008A000080330E0C9010896E0E2F1E0880F991FE3
:1008B000DF01A80FB91F11961C92119787E190E0F4
:1008C000821B930B880F991FE80FF91F11821C924E
:1008D000108210925F01089580915F01882319F0C2
:1008E00089E08093630110925F01089580910A036B
:1008F0008F5F80930A0381E080930E030895CF9366
:10090000DF93E42FF52FDC011896A9014A0F5B1F36
:10091000A417B507C8F4A831B105B0F48E2F9F2FE6
:10092000EC01CD01880F991F860F971FFC01E05E37
:10093000FE4F888180831196A417B50728F421966D
:100940003296A831B105A8F3DF91CF9108959C01AB
:10095000285F3F4F420F531F24173507A8F4283153
:10096000310590F4C901880F991F860F971FFC016C
:10097000E05EFE4F10822F5F3F4F2417350720F4B3
:10098000329628313105B0F30895EF92FF920F931C
:100990001F93CF93DF93E9E5F0E080818B7F808325
:1009A00080E090E060E070E040E150E00E94A70449
:1009B00080E090E061E070E040E150E00E94A70438
:1009C0000FE010E00F2EFDE6EF2EF0E0FF2EF02DF1
:1009D000C0E9D1E0C801049660E070E041E050E079
:1009E0000E94A704C80160E070E0A70124E030E0A5
:1009F0000E947F049E01CE010197F1F72150304003
:100A0000D1F7015010400530110521F720E737E1FB
:100A100040E951E0CA010197F1F721503040D1F788
:100A20000DEF1FEF0F2EF9E6EF2EF0E0FF2EF02D69
:100A3000C0E9D1E0C801019760E070E041E050E01A
:100A40000E94A704C80160E070E0A70124E030E044
:100A50000E947F049E01CE010197F1F721503040A2
:100A6000D1F70F5F1F4F0730110521F720E737E15E
:100A700040E951E0CA010197F1F721503040D1F728
:100A80000FE010E00F2EF5E6EF2EF0E0FF2EF02D38
:100A9000C0E9D1E0C801049660E070E041E050E0B8
:100AA0000E94A704C80160E070E0A70124E030E0E4
:100AB0000E947F049E01CE010197F1F72150304042
:100AC000D1F7015010400530110521F720E737E13B
:100AD00040E951E0CA010197F1F721503040D1F7C8
:100AE00086E090E060E070E044E050E00E94A704FF
:100AF000E9E5F0E0808184608083DF91CF911F91F0
:100B00000F91FF90EF900895CF92DF92EF92FF92B6
:100B10000F931F93DF93CF9300D00F92CDB7DEB723
:100B20009C01E9E5F0E080818B7F8083C9016AE068
:100B300070E00E9429128B83C9016AE070E00E9474
:100B40002912262F372F862F972F6AE070E00E94F8
:100B500029128A83822F932F6AE070E00E94291263
:100B6000CB016AE070E00E942912082F898380E09F
:100B700090E060E070E040E150E00E94A70480E077
:100B800090E061E070E040E150E00E94A7040F2E89
:100B9000F1E6EF2EF0E0FF2EF02D10E0000F111F18
:100BA000000F111F6701C00ED11E81E090E060E0D0
:100BB00070E0A60124E030E00E947F048A8190E08A
:100BC000880F991F880F991F8701080F191F86E04A
:100BD00090E060E070E0A80124E030E00E947F0433
:100BE0008B8190E0880F991F880F991FE80EF91EDE
:100BF0008BE090E060E070E0A70124E030E00E942C
:100C00007F0428E53BE140E951E0CA010197F1F793
:100C100021503040D1F781E090E060E070E04EE09C
:100C200050E00E94A70428EB3BE040E951E0CA01F4
:100C30000197F1F721503040D1F781E090E060E07A
:100C400070E0A60124E030E00E947F0486E090E09E
:100C500060E070E0A80124E030E00E947F048BE0B7
:100C600090E060E070E0A70124E030E00E947F04A3
:100C700028E53BE140E951E0CA010197F1F7215035
:100C80003040D1F781E090E060E070E04EE050E06D
:100C90000E94A70428EB3BE040E951E0CA0101971C
:100CA000F1F721503040D1F781E090E060E070E052
:100CB000A60124E030E00E947F0486E090E060E03E
:100CC00070E0A80124E030E00E947F048BE090E017
:100CD00060E070E0A70124E030E00E947F0420E2A1
:100CE0003EE440E951E0CA010197F1F7215030405C
:100CF000D1F781E090E060E070E04EE050E00E94CB
:100D0000A704E9E5F0E08081846080830F900F9074
:100D10000F90CF91DF911F910F91FF90EF90DF9097
:100D2000CF9008954F925F926F927F928F929F9291
:100D3000AF92BF92CF92DF92EF92FF920F931F93E9
:100D4000CF93DF93082FE9E5F0E080818B7F8083EC
:100D500080E090E060E070E040E150E00E94A70495
:100D600080E090E061E070E040E150E00E94A70484
:100D700010E0000F111F000F111F0F2EF1E6AF2E14
:100D8000F0E0BF2EF02DA00EB11E0EE010E00F2EF1
:100D9000F9E8EF2EF0E0FF2EF02D0F2EF5E0CF2E2C
:100DA000DD24F02DCE0CDF1C0F2EF4EF8F2EF1E0A2
:100DB0009F2EF02DC0E9D1E0C7015E2C492EC8015D
:100DC00060E070E0A70125E030E00E947F04C801E8
:100DD000059660E070E041E050E00E94A704C60183
:100DE0007C2C692EC801069660E070E0A60123E025
:100DF00030E00E947F04C801099660E070E041E0A5
:100E000050E00E94A704C8010A9661E070E0A501C5
:100E100024E030E00E947F04C8010E9661E070E09B
:100E200041E050E00E94A7049401CE010197F1F740
:100E300021503040D1F70150104009F0BDCF20E1E2
:100E400037E240E951E0CA010197F1F72150304003
:100E5000D1F781E090E060E070E049E050E00E946E
:100E6000A7048BE090E061E070E044E050E00E9475
:100E7000A70420EA3FE040E951E0CA010197F1F7F9
:100E800021503040D1F781E090E060E070E0452DE6
:100E9000542D25E030E00E947F0487E090E060E080
:100EA00070E0472D562D25E030E00E947F048BE056
:100EB00090E061E070E0A50124E030E00E947F0452
:100EC00020E137E240E951E0CA010197F1F72150F2
:100ED0003040D1F781E090E060E070E049E050E020
:100EE0000E94A7048BE090E061E070E044E050E0F5
:100EF0000E94A704E9E5F0E0808184608083DF91AF
:100F0000CF911F910F91FF90EF90DF90CF90BF9006
:100F1000AF909F908F907F906F905F904F900895CB
:100F20001F93CF93DF93E9E5F0E080818B7F80838F
:100F3000E0E3F1E0DF015E961FEFC4EFD1E040E9AE
:100F400051E060E471E0108311821C9311961C92B1
:100F500011979E01CA010197F1F721503040D1F756
:100F600032961297E617F70771F720EA3FE040E95B
:100F700051E0CA010197F1F721503040D1F7EEE37B
:100F8000F1E0DF011296C4EFD1E040E951E06EE2FA
:100F900071E010821C929E01CA010197F1F7215065
:100FA0003040D1F732971296E617F70791F720EA0B
:100FB0003FE040E951E0CA010197F1F7215030408C
:100FC000D1F7E9E5F0E0808184608083DF91CF9103
:100FD0001F910895EF92FF920F931F93CF93DF938A
:100FE0000E94900710925D0181E080936001109251
:100FF00052010F2EF5E6EF2EF0E0FF2EF02DC3E9A3
:10100000D0E009E610E044C09130B9F0913018F01A
:101010009230D1F72CC081E090E060E070E0A70151
:1010200024E030E00E947F0486E090E060E070E021
:1010300049E050E00E94A7042BC081E090E060E00E
:1010400070E044E050E00E94A70486E090E060E099
:1010500070E0A80124E030E00E947F048BE090E083
:1010600060E070E044E050E00E94A70411C081E01D
:1010700090E060E070E049E050E00E94A7048BE05F
:1010800090E060E070E0AE0124E030E00E947F0478
:101090009091600180915201882309F4B5CFE9E570
:1010A000F0E080818B7F808385E0989F9001112400
:1010B000A901475F5F4FC9010D96481759079CF476
:1010C000CA01880F991FFC01E05EFE4FC901880F1D
:1010D000991F9C01265C3E4F80818183108232964D
:1010E000E217F307C9F720E43FE140E951E0CA0104
:1010F0000197F1F721503040D1F70E949007E9E5C0
:10110000F0E0808184608083DF91CF911F910F9107
:10111000FF90EF900895DF93CF9300D000D000D0E0
:10112000CDB7DEB784E691E09E838D8310920703EE
:101130001092060381E090E09A83898314C08D8128
:101140009E819C838B838D819E8106969E838D8359
:10115000EB81FC818D819E819583848389819A8135
:1011600001969A83898389819A81863491053CF31B
:1011700026960FB6F894DEBF0FBECDBFCF91DF919C
:101180000895DF93CF9300D000D000D0CDB7DEB765
:101190008B836C8380919700909198009A838983C8
:1011A0008091970090919800009719F41E821D82FB
:1011B0002BC0E0919700F0919800848195819093E5
:1011C000980080939700E981FA8187E180838B8181
:1011D000282F30E081E090E0022E02C0880F991F96
:1011E0000A94E2F7E981FA818183E981FA818C81AD
:1011F0008283E981FA811382E981FA81158214825E
:1012000089819A819E838D838D819E8126960FB6DA
:10121000F894DEBF0FBECDBFCF91DF910895DF936D
:10122000CF93CDB7DEB767970FB6F894DEBF0FBE8A
:10123000CDBF9F8B8E8B1D861C868BE18B8781E0BB
:101240008A878E899F890E94A6128AE08093600116
:1012500088E080935A0180916001882F90E020916E
:101260005A01880F991FFC01EF5DFE4F20838FEF1D
:101270008093310181E0809359010E948B081D8A7F
:101280001C8A10925C0110925B0110925E01109218
:101290005D0110925F011092620110926101109243
:1012A000630180915D0190915E0118161906CCF7DB
:1012B00040915B0150915C018B85282F30E0CA0181
:1012C000B9010E942912009729F50E94A11289876D
:1012D0008985282F277089859A85692F0E941D127C
:1012E000892F982F85E0382F391B932F822F692F54
:1012F0000E94C1089B8B8A8B8A899B89009789F2FF
:10130000EA89FB898C899D89958384838A899B8955
:101310009D8B8C8B80915B0190915C0120E233E08E
:10132000B9010E942912009761F481E080935F0166
:101330008B858A3018F08B8583508B878A858F5FE9
:101340008A878C899D899B8B8A8B20C0EA89FB893F
:101350009281EA89FB898381891758F0EA89FB89A0
:1013600080818150EA89FB898083EA89FB89138225
:1013700007C0EA89FB8983818F5FEA89FB898383C0
:10138000EA89FB89848195819B8B8A8B8A899B89D9
:101390000097E1F680E090E060E070E040E150E02E
:1013A0000E94A7048C899D899B8B8A8BBBC0EA898C
:1013B000FB898081898BEA89FB898181888B898976
:1013C000482F50E08989882F90E0880F991FFC01F1
:1013D000E05EFE4F90818889292F282BCA01880F53
:1013E000991FFC01E05EFE4F20838989882F90E0E1
:1013F000880F991FFC01E05EFE4F90818889892348
:10140000882309F489C08989882F90E0880F991F63
:10141000FC01EF5DFE4F908188898923882309F4C0
:101420007BC0EA89FB898481958198878F8389892C
:10143000482F50E08989882F90E0880F991FFC0180
:10144000E05EFE4F8081982F888980958923282F20
:10145000CA01880F991FFC01E05EFE4F2083898935
:101460008A30E9F08989482F50E08989882F90E0F7
:10147000880F991FFC01EF5DFE4F8081982F8889AE
:1014800080958923282FCA01880F991FFC01EF5DE1
:10149000FE4F20838C859D8503969D878C872A89A6
:1014A0003B898C899D892817390739F4EC89FD8996
:1014B000848195819D8B8C8B1CC08C899D899E839A
:1014C0008D8306C0ED81FE81848195819E838D830D
:1014D000ED81FE81248135818A899B89281739070E
:1014E00089F7EA89FB8984819581ED81FE81958365
:1014F00084838091970090919800EA89FB89958375
:1015000084838A899B8990939800809397008F8128
:1015100098859B8B8A8B06C0EA89FB89848195819B
:101520009B8B8A8B8A899B89009709F040CF80E04A
:1015300090E060E070E040E150E00E94A7048C89F8
:101540009D899B8B8A8B22C0EA89FB898081482FE9
:1015500050E0EA89FB898081882F90E0880F991FED
:10156000FC01E05EFE4F9081EA89FB898181292F91
:10157000282BCA01880F991FFC01E05EFE4F2083D3
:10158000EA89FB89848195819B8B8A8B8A899B89D7
:101590000097D1F680915F018823C9F080916001A6
:1015A000482F50E080916001882F90E0880F991FAC
:1015B000FC01E05EFE4F908180915A01292F282B7B
:1015C000CA01880F991FFC01E05EFE4F20838091C5
:1015D0004F01882F90E09F878E8787E190E09F875B
:1015E0008E8717C02E853F858E859F850197880F32
:1015F000991FFC01EF5DFE4F4081C901880F991FC3
:10160000FC01EF5DFE4F40838E859F8501979F878C
:101610008E878E859F858C30910524F7809163019C
:10162000823068F08FEF80933701809163018150A1
:101630008093630110926201109261011EC080913B
:101640006301813039F480915A01809337011092FF
:10165000630113C010923701109263018091610100
:101660009091620199234CF4809161019091620103
:10167000019690936201809361018C899D899B8B77
:101680008A8BA5C0EA89FB898081898BEA89FB89DD
:101690008181888B8989882F90E0880F991FFC01B0
:1016A000E05EFE4F908188898923882309F489C0F0
:1016B0008989882F90E0880F991FFC01EF5DFE4F0C
:1016C000908188898923882309F47BC0EA89FB8972
:1016D000848195819C838B838989482F50E08989F7
:1016E000882F90E0880F991FFC01E05EFE4F8081FB
:1016F000982F888980958923282FCA01880F991FE0
:10170000FC01E05EFE4F208389898A30E9F08989F7
:10171000482F50E08989882F90E0880F991FFC019D
:10172000EF5DFE4F8081982F888980958923282F2F
:10173000CA01880F991FFC01EF5DFE4F20838C8545
:101740009D8505969D878C872A893B898C899D89F3
:101750002817390739F4EC89FD89848195819D8B9F
:101760008C8B1CC08C899D899A83898306C0E981F2
:10177000FA81848195819A838983E981FA81248120
:1017800035818A899B892817390789F7EA89FB8976
:1017900084819581E981FA81958384838091970082
:1017A00090919800EA89FB89958384838A899B8933
:1017B00090939800809397008B819C819B8B8A8B60
:1017C00006C0EA89FB89848195819B8B8A8B8A89F3
:1017D0009B89009709F056CF80913001882329F426
:1017E00010925E0110925D015CCD8C859D8523E099
:1017F000883E920720F087EE93E09D878C878C854A
:101800009D8567960FB6F894DEBF0FBECDBFCF9112
:10181000DF9108952F923F924F925F926F927F9245
:101820008F929F92AF92BF92CF92DF92EF92FF92F0
:101830000F931F93DF93CF93CDB7DEB7CA5CD04031
:101840000FB6F894DEBF0FBECDBF0E94A61280E196
:101850008093600188E080935A018093410181E088
:101860008093590110925C0110925B01CE01895660
:101870009F4FFC019E0127533F4F1192E217F30740
:10188000E1F710925E0110925D0110920803BB24F3
:101890006E010894C11CD11C8824992466247724E5
:1018A000689463F80F2EF0E2EF2EF1E0FF2EF02D9A
:1018B000C753DF4F8883C95CD040C653DF4F98833E
:1018C000CA5CD0400F2EF3E03F2EF02DAA24AA943C
:1018D0000F2EF7E14F2E5524F02D2224239463C1BF
:1018E00080915D0190915E01843091050CF443C1BB
:1018F00080915B0190915C016CEA70E00E9429127A
:10190000892B09F040C00E94A112382F492F0B2DBE
:1019100010E0C801880F991F800F911FF601E80F92
:10192000F91F80915B0190915C0168EE73E00E9469
:1019300029128AE0861B8283809108032091080384
:10194000285FB301681B7109660F771F832F942FDF
:101950000E943D12280F208330FF0BC0C801880F62
:10196000991F800F911FF601E80FF91F20E82183CE
:1019700009C0C801880F991F800F911FF601E80F59
:10198000F91F2182B39480915B0190915C0160E228
:1019900073E00E942912892B09F067C08091080327
:1019A00090E00896880F991FF701E80FF91FA082B1
:1019B0008091080390E00896880F991FF701E80FBF
:1019C000F91FA18280910803B201681B7109CB0144
:1019D000880F991FF701E80FF91FA0828091080373
:1019E000D201A81BB109CD01880F991FF701E80F9B
:1019F000F91FA182809108038F5F809308034091B3
:101A00006001242F30E08091080390E008962817A9
:101A100039078CF4842F8F5F8093600190E0880FEA
:101A2000991FF701E80FF91F319680915A019081B3
:101A3000892B808318C080910803B201681B71094B
:101A40006217730784F4842F81508093600190E0C3
:101A5000880F991FF701E80FF91F319680915A01FD
:101A60009081892B808320925F01BB2009F4D1C033
:101A70005091600140915A018601C753DF4F888120
:101A8000C95CD040C653DF4F9881CA5CD040FC018E
:101A9000B39CC00111249601280F391F9081D801F1
:101AA00012968C911297981718F18C9111969C911F
:101AB0001197851718F48F5F8C9305C0581718F489
:101AC0008150D8018C93941740F4D80111968C91D1
:101AD0001197880F11968C9309C0491738F4D801D3
:101AE00011968C911197869511968C93108203C054
:101AF000892F8F5F80830D5F1F4F31960217130769
:101B000069F68091080390910803A301491B5109CC
:101B1000440F551F90E0B4010E94A704D6018C9198
:101B200090E0880F991FF701E80FF91F11968C912B
:101B300011979081892B80831396A017B10779F7AD
:101B400080915F01882369F08091600190E0880FA7
:101B5000991FF701E80FF91F80915A019081892B95
:101B6000808390925E0180925D014B2D50E01416AF
:101B7000150624F018C09923B4F0F7CF90916001B6
:101B800060915A01F60194018081891731F48181B5
:101B9000861719F41092590106C02F5F3F4F3396F4
:101BA000241735078CF380915901882309F098CECA
:101BB00080915B0190915C018750974230F086E004
:101BC00097E290935C0180935B0180915B0190911F
:101BD0005C016AE070E00E942912862F972FC6539D
:101BE000DF4F0FB6F894DEBF0FBECDBFCF91DF91B0
:101BF0001F910F91FF90EF90DF90CF90BF90AF902B
:101C00009F908F907F906F905F904F903F902F901C
:101C100008958091080390910803A301491B51097D
:101C2000440F551F90E0B4010E94A70489CF0F9381
:101C30001F93CF93DF938C0186E0689FE00111240E
:101C4000CE010C970E94B9128017910710F481E021
:101C500013C0CE010A970E94B9128017910710F4A1
:101C600082E00AC0CE0108970E94B912801791073E
:101C700010F080E001C083E0DF91CF911F910F91C0
:101C800008952F923F924F925F926F927F928F9220
:101C90009F92AF92BF92CF92DF92EF92FF920F93FB
:101CA0001F93DF93CF9300D000D000D0CDB7DEB725
:101CB0001092090381E08093590181E090E060E097
:101CC00070E04EE050E00E94A70481E090E061E007
:101CD00070E04EE050E00E94A70410920E031092B4
:101CE0000A0380915901882309F421C10F2EF1E6DE
:101CF0008F2EF0E09F2EF02D0F2EF8E22F2EF1E028
:101D00003F2EF02D0F2EF3E0EF2EF02D0F2EF9E9E0
:101D10006F2EF0E07F2EF02D0F2EF0E54F2EF1E02C
:101D20005F2EF02D0F2EF0E2CF2EF1E0DF2EF02D02
:101D3000A0900903B090090380910A0380FD47C079
:101D40008091090390E0880F991F0E94B912F82E24
:101D5000492F06E411E08F2D942F6AE070E00E9475
:101D60002912282F392FC901880F991F880F991F11
:101D7000B401680F791FD8018C91FB019191892BD7
:101D80008C9312968C9112979081892B12968C933A
:101D90001297FB0114968C9114979281892B1496BB
:101DA0008C93149716968C9116979381892B16967F
:101DB0008C938F2D942F6AE070E00E942912F62EEA
:101DC000472F0A5010400215130529F655C080917F
:101DD00009038E9DC00111240F960E94B1128983C0
:101DE0001A82809109038E9DC001112440960E94A1
:101DF000B1128B831C82809109038E9DC001112436
:101E000041960E94B1128D831E8242E351E0BE01D1
:101E10006F5F7F4FDB012D913D91BD01C901880F9F
:101E2000991F880F991F820F931FD301A80FB91F05
:101E3000FA018081FD0191919F01892BFA01808334
:101E40008281F9019081892BFA0182838481129623
:101E50009C911297892B8483868113969C9113976A
:101E6000892B8683808514969C91892B8087465F79
:101E70005F4F4415550571F68B2D6E2D0E941D1276
:101E8000F5E09F9F402D112450E09A01275F3F4FBE
:101E90008A2D0E941D1290E0220F331F280F391F38
:101EA000F601E20FF31F2081206820839A01265F4C
:101EB0003F4F220F331F280F391FF601E20FF31F88
:101EC0002081206820839A01255F3F4F220F331F16
:101ED000280F391FF601E20FF31F208120682083AD
:101EE000445F5F4F440F551F480F591FF601E40F21
:101EF000F51F80818068808380910E038823E1F341
:101F000080E090E060E070E040E150E00E94A704D3
:101F100080E090E061E070E040E150E00E94A704C2
:101F200010920E0380915901882309F001CF269663
:101F30000FB6F894DEBF0FBECDBFCF91DF911F91DA
:101F40000F91FF90EF90DF90CF90BF90AF909F9058
:101F50008F907F906F905F904F903F902F9008955B
:101F60006F927F928F929F92AF92BF92CF92DF92A9
:101F7000EF92FF920F931F93CF93DF933C01862E36
:101F8000942E10920903EBE0F3E0DF011D921C9206
:101F90003296108281E08093590110924E01C9E976
:101FA000D0E00F2EFBE0AF2EF3E0BF2EF02D05E0CA
:101FB00075010894E11CF11C6F01F5018081809F7F
:101FC000C0011124AE01480F591F81E090E060E08C
:101FD00070E025E030E00E947F04F7018081809F5F
:101FE000C0011124AE01480F591F86E090E060E067
:101FF00070E025E030E00E947F04F6018081809F40
:10200000C0011124AE01480F591F8BE090E060E041
:1020100070E025E030E00E947F0410925E01109293
:102020005D0135C080915D0190915E010097C9F41A
:102030008091090320910903F501E20FF11D208130
:10204000809FC0011124209F90011124AE01420FF6
:10205000531F019660E070E025E030E00E947F04AD
:1020600016C08A30910569F480910903809FC001F0
:102070001124019660E070E045E050E00E94A70462
:1020800006C0449721F410925E0110925D01809188
:102090005901882321F080910E03882319F21092B0
:1020A0000E0380915901882309F087CF80E090E0EA
:1020B00060E070E040E150E00E94A704E9E5F0E054
:1020C00080818B7F80830F2EF9E9CF2EF0E0DF2E09
:1020D000F02D0F2EFBE0EF2EF3E0FF2EF02DF70199
:1020E00081918F010F2EF5E0BF2EF02D8B9DC00149
:1020F0001124A601480F591F81E090E061E070E0D3
:1021000025E030E00E947F04F80180818B9DC001B2
:102110001124A601480F591F86E090E061E070E0AD
:1021200025E030E00E947F0482E090E0E80EF91E96
:10213000F70180818B9DC0011124C80ED91E8BE050
:1021400090E061E070E0A60125E030E00E947F04AD
:1021500020E137E240E951E0CA010197F1F721504F
:102160003040D1F780E090E061E070E040E150E085
:102170000E94A704C92DD0E0CE01880F991F8C0FB3
:102180009D1F880F991F082F0C50F2E08F1671F1D8
:1021900083E0881609F449C091E0891609F057C018
:1021A00010E0EE24FF246894E1F8E00EF11EC70170
:1021B0000E94B912BC01C80104960E94D012C80145
:1021C0000E94B912BC01C7010E94D012C801B3011C
:1021D0000E94D012CE01880F991F880F991F880F77
:1021E000991F8C0F9D1F482F425148C010E0EE24CC
:1021F000FF246894E1F8E00EF11EC7010E94B912B5
:10220000BC01C80104960E94D012C701B3010E940C
:10221000D012CE01880F991F880F991F880F991F20
:102220008C0F9D1F482F425195C0802F90E004963F
:10223000B3010E94D012CE01880F991F880F991FF9
:10224000880F991F8C0F9D1F482F4251C3C0CE018C
:10225000880F991F880F991F880F991F8C0F9D1F3A
:10226000482F4251E2E08E1609F474C0F3E08F1655
:1022700009F4B0C081E0881609F0CBC0C42EDD247B
:1022800086010E5E1F4FC8010E94B112682FC60161
:1022900045960E94BF120F2EF3E1EF2EFF24F02D82
:1022A000EC0CFD1CC7010E94B112682FC6014696B6
:1022B0000E94BF120F2EF4E1AF2EBB24F02DAC0C08
:1022C000BD1CC5010E94B112682FC60147960E942D
:1022D000BF120F2EFFE08F2E9924F02D8C0C9D1C29
:1022E000C4010E94B112682FC8010E94BF12662467
:1022F0007724689464F86C0C7D1CC3010E94B112B1
:10230000682FC7010E94BF12E1E1F0E0CE0EDF1E90
:10231000C6010E94B112682FC5010E94BF120F2E84
:10232000FBE0EF2EF3E0FF2EF02DF70161918F011E
:10233000C4010E94BF12F8016081C3010E94BF1254
:1023400082E090E0E80EF91EF7016081C6010E946C
:10235000BF125FC0C42EDD240F2EF2E1AF2EBB24CE
:10236000F02DAC0CBD1CC5010E94B112682FC60136
:1023700045960E94BF12C60143960E94B112682F73
:10238000C60146960E94BF12C60144960E94B11231
:10239000682FC60147960E94BF120F2EFBE0EF2E5A
:1023A000F3E0FF2EF02DF70161918F01C5010E942E
:1023B000BF12F8016081C60141960E94BF1282E0FF
:1023C00090E0E80EF91EF7016081C60140960E9478
:1023D000BF121FC0C42EDD240F2EFBE0EF2EF3E052
:1023E000FF2EF02DF70161918F01C60145960E94E5
:1023F000BF12F8016081C60146960E94BF1282E0BA
:1024000090E0E80EF91EF7016081C60147960E9430
:10241000BF12E9E5F0E0808184608083DF91CF9195
:102420001F910F91FF90EF90DF90CF90BF90AF90F2
:102430009F908F907F906F900895991B79E004C0D2
:10244000991F961708F0961B881F7A95C9F78095F3
:102450000895AA1BBB1B51E107C0AA1FBB1FA617EB
:10246000B70710F0A61BB70B881F991F5A95A9F73D
:1024700080959095BC01CD01089597FB092E072604
:102480000AD077FD04D0E5DF06D000201AF470955D
:1024900061957F4F0895F6F7909581959F4F089528
:1024A000A0E0B0E0E6E5F2E10C942813EC01A8808E
:1024B000B980CA80DB80A114B104C104D10441F405
:1024C00084E2A82E89EDB82E8BE5C82E87E0D82EA1
:1024D000C601B5012DE133EF41E050E00E94051344
:1024E00027EA31E440E050E00E94E6127B018C01D3
:1024F000C601B5012DE133EF41E050E00E94051324
:10250000CA01B9012CEE34EF4FEF5FEF0E94E612E3
:102510006E0D7F1D801F911F97FF04C0615070409A
:1025200080409048688379838A839B839B013F77AF
:10253000C901CDB7DEB7EAE00C9444130E945012F3
:1025400008958BE191E00E9450120895A0E0B0E060
:1025500080931B0190931C01A0931D01B0931E0159
:102560000895E199FECF9FBB8EBBE09A99278DB36A
:102570000895A8E1B0E042E050E00C94D812262F74
:10258000E199FECF9FBB8EBBE09A01970DB2021678
:1025900031F02DBB0FB6F894E29AE19A0FBE089580
:1025A0000196272F0E94C0120C94BF12DC01CB01B0
:1025B000FC01E199FECF06C0FFBBEEBBE09A31966D
:1025C0000DB20D9241505040B8F70895629FD0016E
:1025D000739FF001829FE00DF11D649FE00DF11DDE
:1025E000929FF00D839FF00D749FF00D659FF00D8D
:1025F0009927729FB00DE11DF91F639FB00DE11D7A
:10260000F91FBD01CF011124089597FB092E05265E
:102610000ED057FD04D04BD00AD0001C38F4509592
:102620004095309521953F4F4F4F5F4F0895F6F7F6
:1026300090958095709561957F4F8F4F9F4F08952E
:102640002F923F924F925F926F927F928F929F92C2
:10265000AF92BF92CF92DF92EF92FF920F931F93B0
:10266000CF93DF93CDB7DEB7CA1BDB0B0FB6F89461
:10267000DEBF0FBECDBF09942A88398848885F84A1
:102680006E847D848C849B84AA84B984C884DF8012
:10269000EE80FD800C811B81AA81B981CE0FD11DF6
:1026A0000FB6F894DEBF0FBECDBFED010895A1E2D5
:1026B0001A2EAA1BBB1BFD010DC0AA1FBB1FEE1FBC
:1026C000FF1FA217B307E407F50720F0A21BB30B07
:1026D000E40BF50B661F771F881F991F1A9469F783
:1026E00060957095809590959B01AC01BD01CF01DF
:0626F0000895F894FFCFED
:1026F600087F41417F42417F407949494F494949D5
:102706007F080C0A7F4F4949797F4949790F0101B2
:102716007F7F49497F4F49497F7E0418207E70504C
:102726007000007F19294664017E0909097E7F49E8
:102736004949363E414141417F4141413E7F4949F8
:1027460049497F090909093E414949397F0808086D
:102756007F00417F41007041417F017F0814224183
:102766007F404040407F0204027F7F0408107F3E86
:102776004141413E7F090949063F2161213F7F09C9
:10278600192946264949493201017F01013F404046
:10279600403F1F2040201F3F4038403F631408142D
:1027A60063070870080761514945430100000000AE
:00000001FF
